:020000040800F2
:10000000B0C60120AD810008B5030008B7030008A1
:10001000BB030008BF030008C30300080000000082
:10002000000000000000000000000000C7030008FE
:10003000C903000800000000CB030008CD0300083E
:10004000C7810008C7810008C7810008C781000870
:10005000C7810008C7810008C7810008C781000860
:10006000C7810008C7810008C7810008C781000850
:10007000C7810008C7810008C78100081D7A0008F1
:10008000C7810008C7810008C7810008C781000830
:10009000C7810008C7810008C7810008C781000820
:1000A000C7810008C7810008C7810008C781000810
:1000B000917E0008C781000833B50008C781000899
:1000C000C7810008C7810008C7810008C7810008F0
:1000D000C781000823810008C7810008C781000884
:1000E000C7810008C7810008C7810008C7810008D0
:1000F000C7810008C7810008C7810008C7810008C0
:10010000C781000859730008C7810008C78100082B
:10011000C7810008C7810008C7810008C78100089F
:10012000C7810008C7810008C7810008C78100088F
:10013000C7810008C7810008C7810008C78100087F
:10014000C7810008C7810008C7810008C78100086F
:10015000C7810008C7810008C7810008C78100085F
:10016000C7810008C7810008C7810008C78100084F
:10017000C7810008C7810008C7810008C78100083F
:10018000C7810008C781000800F002F800F06DF890
:100190000AA090E8000C82448344AAF10107DA45E2
:1001A00001D100F062F8AFF2090EBAE80F0013F0C7
:1001B000010F18BFFB1A43F0010318476440020007
:1001C000844002000A444FF0000C10F8013B13F089
:1001D000070408BF10F8014B1D1108BF10F8015BA0
:1001E000641E05D010F8016B641E01F8016BF9D193
:1001F00013F0080F1EBF10F8014BAD1C0C1B09D1EA
:100200006D1E58BF01F801CBFAD505E014F8016B5B
:1002100001F8016B6D1EF9D59142D6D370470000ED
:100220000023002400250026103A28BF78C1FBD8FF
:10023000520728BF30C148BF0B607047642910F0D7
:100240004987752910F04687782910F07F87632940
:1002500011F01E82732911F02382002070471FB510
:1002600011F0FAFB1FBD10B510BD11F07DFA11465B
:10027000FFF7F5FF00F010F811F09BFA03B4FFF759
:10028000F2FF03BC07F0EEFE30BF72B6704762B6F5
:10029000704780F3088870470EB54FF4A06007F0F0
:1002A000A5FFA82007F05CFE4FF4E13007F0E7FE61
:1002B000394841685420884705F036F801F0C9F8FC
:1002C00005F0D8F807F0FAFB00200AF0F0FC022055
:1002D0000AF0EDFC0FF0BEF830490122086830A1A9
:1002E0000DF050FA4FF6FF702E49088007F0DBFD45
:1002F0001421084607F01BFD002010212AA20B46FE
:10030000CDE900210290302201461E200FF005FEAB
:100310004FF6FF7010235022002100904E2004F071
:1003200035FD4FF6FF700323B522002100905020C9
:1003300004F02CFD4FF6FF701023B5220D21009024
:10034000502004F023FD4FF6FF701023B52200214A
:100350000090B32004F01AFD4FF6FF700B237022BB
:1003600005210090532004F011FD8020102103236B
:100370001F22CDE900100021B52004F034FF0C4805
:10038000B0231A46402100901E2000F0FAF901E047
:1003900010F0A5FCFCE70000D8010020ACBF012054
:1003A000303A000014000020566F6C756D65000037
:1003B000621A0108704700BFFEE700BFFEE700BFFA
:1003C000FEE700BFFEE770477047704770470000C8
:1003D0000CB50020019000907648006840F4803011
:1003E0007449086000BF7348006800F40030009052
:1003F0000198401C0190009818B90198B0F5A04FE1
:10040000F1D16C48006800F4003010B10120009078
:1004100001E0002000900098012846D16548403056
:10042000006840F0805063494031086062480068CD
:1004300040F44040604908605E48083000685D490B
:10044000083108600846006840F40040086008462B
:10045000006840F4A05008605848091F0860081F51
:10046000006840F08070091F086000BF51480068B4
:1004700000F000700028F9D040F205705049086083
:100480004C480830006820F003004A4908310860F1
:100490000846006840F00200086000BF4548083088
:1004A000006800F00C000828F8D10CBD10B54548D4
:1004B000006840F47000434908603E48006840F01E
:1004C00001003C49086000203A4908310860394879
:1004D00000683D490840374908603C48091D0860EC
:1004E000081F006820F48020091F0860002031499F
:1004F0000C310860FFF76CFF4FF000603149803924
:10050000086010BD70B500200022022300240221E3
:10051000284D08352D6805F00C0020B1042806D0C0
:10052000082834D107E02A4D2A4E356033E02A4DA1
:10053000284E35602FE01F4D2D1D2D68C5F38054CA
:100540001C4D2D1D2D6805F03F0154B1224DB5FB0A
:10055000F1F5184E361D3668C6F3881605FB06F20F
:1005600009E01B4DB5FBF1F5124E361D3668C6F39A
:10057000881605FB06F20F4D2D1D2D68C5F30145AC
:100580006D1C6B00B2FBF3F5124E356003E0104DAD
:10059000104E356000BF00BF064D08352D68C5F30D
:1005A00003150E4E705D0B4D2D68C540094E35602C
:1005B00070BD000000380240007000400854400741
:1005C000003C024088ED00E0FFFFF6FE1030002402
:1005D0000024F4000000002000127A000400002033
:1005E000FE4A1080921C1180704701B5BDF80000D2
:1005F0000090BDF80000F949891C088008BD01B5CC
:10060000BDF800000090BDF80000F449088008BD66
:1006100070B504460D461646F148808849F24131CE
:10062000884205D0EE48808845F21031884214D1C6
:10063000EB494889FFF7E3FF2012FFF7D6FFE0B24E
:10064000FFF7D3FFE6498889FFF7D9FF2812FFF7A4
:10065000CCFFE8B2FFF7C9FF8CE0E148808845F2A3
:100660001051884220D1DE494889FFF7C8FF201287
:10067000FFF7BBFFDA494989491C88B2FFF7BFFF82
:10068000E0B2FFF7B2FFD6498889FFF7B8FF28121A
:10069000FFF7ABFFD2498989491C88B2FFF7AFFF4A
:1006A000E8B2FFF7A2FF65E0CD48808841F663110C
:1006B000884228D1CA48807920B9C9480088401E9C
:1006C000001B84B2C6494889FFF799FF2012FFF743
:1006D0008CFFE0B2FFF789FF2012FFF786FFE0B240
:1006E000FFF783FFBE498889FFF789FF2812FFF7CC
:1006F0007CFFE8B2FFF779FF2812FFF776FFE8B238
:10070000FFF773FF36E0B648808846F6040188425A
:100710001DD1B3488079012804D1B1480088401E1A
:10072000001B84B2AE494889FFF769FF2012FFF72A
:100730005CFFE0B2FFF759FFA9498889FFF75FFF27
:100740002812FFF752FFE8B2FFF74FFF12E0A4486C
:100750008079012804D1A2480088401E001B84B281
:100760009F4948892146FFF73BFF9D4988892946D3
:10077000FFF736FF9A48008998490880881C068050
:1007800070BD2DE9F04F04460D4690469946DDF8C0
:1007900024B0DA46AFB20FE0A6B207E03AF8022B77
:1007A00039463046FFF734FF701C86B208EB040070
:1007B000B042F3DC781C87B209EB0500B842EBDCF1
:1007C000BDE8F08F2DE9FF4F07460D461C46AA46AF
:1007D0002046E21704EB5272D2102146E31704EBD5
:1007E0005373DB10A4EBC3030BB1012300E0002320
:1007F0001A44624302F0FF0B002637E0102C08D1A8
:10080000029800EBC000774901EB800010F80680E9
:1008100001E0BDE8FF8F4FF0000921E008F0800003
:1008200030B17148028829463846FFF7F1FE05E0ED
:100830006E48028829463846FFF7EAFE4FEA4860CC
:100840004FEA1068681CC5B2A5EB0A00A04203D1AC
:100850005546781CC7B206E009F1010000F0FF0917
:10086000B9F1080FDADB00BF701CC6B25E45C5DB0C
:1008700000BFCEE708B55948801C00880090BDF83D
:10088000000008BD10B504462046FFF7B8FE05205D
:1008900007F080FBFFF7EEFF10BD514800894F497C
:1008A000088070474D49891C0880704730B5014663
:1008B00001F01F04C1F34513CA0AE50205EB431515
:1008C0001544A8B230BD00BF011EA0F10102D0B294
:1008D000FAD1704730B504460D464148808849F248
:1008E0004131884205D03E48808845F21031884227
:1008F00014D13B494889FFF782FE2012FFF775FEAD
:10090000E0B2FFF772FE36498889FFF778FE2812B9
:10091000FFF76BFEE8B2FFF768FEB6E0304880886C
:1009200046F6040188421DD12D488079012804D162
:100930002B480088401E001B84B229494889FFF7D4
:100940005EFE2012FFF751FEE0B2FFF74EFE244993
:100950008889FFF754FE2812FFF747FEE8B2FFF739
:1009600044FE92E01E48808841F66311884252D1CD
:100970001B488079A8B91A480088401E001B84B221
:1009800017494889FFF73BFE0020FFF72EFE0020A5
:10099000FFF72BFE2012FFF728FEE0B2FFF725FE3F
:1009A00016E00F494889FFF72AFE2012FFF71DFEC7
:1009B000E0B2FFF71AFE0A490988491EC1F30F2069
:1009C000FFF713FE06490978491EC8B2FFF70DFE6E
:1009D00003498889FFF713FE281209E0FE07006C1F
:1009E000F40200202A24020814000020160000202F
:1009F000FFF7FBFDE8B2FFF7F8FDFE494988491E05
:100A0000C1F30F20FFF7F1FDFA498978491EC8B2FA
:100A1000FFF7EBFD39E0F748808845F21051884236
:100A200020D1F4494889FFF7EAFD2012FFF7DDFDE8
:100A3000F0494989491C88B2FFF7E1FDE0B2FFF7B0
:100A4000D4FDEC498889FFF7DAFD2812FFF7CDFDC8
:100A5000E8498989491C88B2FFF7D1FDE8B2FFF760
:100A6000C4FD12E0E3488079012804D1E148008800
:100A7000401E001B84B2DF4948892146FFF7B0FDC4
:100A8000DC4988892946FFF7ABFD30BD2DE9F041EF
:100A900005460E4600240027A046D6480088A842F6
:100AA00003DDD4484088B04202DC0020BDE8F0817C
:100AB00031462846FFF70EFFCE48808849F2413183
:100AC000884211D0CB48808846F6040188420BD07A
:100AD000C848808845F21031884205D0C5488088D2
:100AE00041F66311884203D12E20FFF788FD0DE007
:100AF000C048808845F21051884204D14FF43850E4
:100B0000FFF77DFD02E02220FFF779FDB9488088DC
:100B100049F22031884202D10220FFF7D4FEFFF7CC
:100B2000A9FE0446B348808841F66311884201D18A
:100B30002046BBE70220FFF7C6FEFFF79BFE0446F8
:100B4000AC48808849F2413188420BD0A94880885E
:100B500045F21031884205D0A648808845F21051F0
:100B600088420AD10220FFF7AEFEFFF783FE8046DF
:100B7000E7B24FF6FF7000EA07279E48808849F2E7
:100B80002531884216D09B48808844F235518842EE
:100B900010D098488088091F88420BD095488088DB
:100BA0004BF20551884205D0924880884CF205519D
:100BB000884201D1204679E78E48808849F2413148
:100BC00088420BD08B48808845F21031884205D08E
:100BD0008848808845F21051884207D1E012C0024F
:100BE000B91240EA411040EAE8205FE72046FFF7EB
:100BF0005DFE5BE700B57F48808849F2413188425D
:100C000011D07C48808846F6040188420BD0794890
:100C1000808845F21031884205D07648808841F6B8
:100C20006311884203D12920FFF7E9FC0FE07148E6
:100C3000808845F21051884204D14FF42450FFF7C8
:100C4000DEFC04E040F273110720FFF7C9FC00BD91
:100C500000B56848808849F24131884211D0654822
:100C6000808846F6040188420BD06248808845F2AD
:100C70001031884205D05F48808841F66311884270
:100C800003D12820FFF7BBFC0EE05A48808845F2CC
:100C90001051884204D14FF42050FFF7B0FC03E01C
:100CA00000210720FFF79CFC00BDF0B5054600249D
:100CB00000275048807901280BD14E48808846F69D
:100CC0000401884205D04B48808841F66311884270
:100CD00008D148488079F0B94648808841F66311C8
:100CE000884218D1082D15D2DFE805F00406080A5D
:100CF0000C0E101206250DE007250BE0042509E077
:100D0000052507E0012505E0002503E0032501E0B6
:100D1000022500BF00BF3748808849F24131884230
:100D200017D03448808846F60401884211D03148F3
:100D3000808845F2103188420BD02E48808845F2D9
:100D40001051884205D02B48808841F663118842B3
:100D50007ED1082D1CD2DFE805F00406090C0F1225
:100D6000151800BF14E044F0800411E044F0400482
:100D70000EE044F0C0040BE044F0200408E044F02E
:100D8000600405E044F0A00402E044F0E00400BF89
:100D900000BF1848808845F21051884202D14FF4B4
:100DA000585700E036271348808845F210318842B2
:100DB0000DD01048808845F21051884207D00D4868
:100DC000808841F66311884201D044F00804094844
:100DD000808846F60401884201D144F0020421468D
:100DE0003846FFF7FDFB0348808841F663118842CF
:100DF00020D001E0F402002004F0200068B1FE4899
:100E00000088FD494988884214DAFB4806884088F2
:100E1000F9490880084646800CE0F7480088F64902
:100E20004988884206DDF44806884088F2490880EF
:100E300008464680F048808845F21051884254D1D7
:100E4000ED494889FFF7DBFB0020FFF7CEFB00E010
:100E50007AE0E9494989491C88B2FFF7D0FB0020B4
:100E6000FFF7C3FBE4494989891C88B2FFF7C7FB38
:100E7000E1490988491EC1F30F20FFF7B6FBDE499F
:100E80004989C91C88B2FFF7BAFBDB490978491EBA
:100E9000C8B2FFF7AAFBD8498889FFF7B0FB00204A
:100EA000FFF7A3FBD4498989491C88B2FFF7A7FB48
:100EB0000020FFF79AFBD0498989891C88B2FFF787
:100EC0009EFBCD494988491EC1F30F20FFF78DFBDA
:100ED000C9498989C91C88B2FFF791FBC64989783D
:100EE000491EC8B2FFF781FB55E0C3494889FFF7A7
:100EF00086FB0020FFF779FB0020FFF776FBBE4959
:100F00000988491EC1F30F20FFF76FFBBA49097822
:100F1000491EC8B2FFF769FBB7498889FFF76FFB25
:100F20000020FFF762FB0020FFF75FFBB249498812
:100F3000491EC1F30F20FFF758FBAF498978491EBE
:100F4000C8B2FFF752FB26E0082D1CD2DFE805F0FF
:100F500004070A0D0F12151844F0300413E044F092
:100F6000100410E044F020040DE000BF0BE044F05A
:100F7000380408E044F0280405E044F0180402E0D6
:100F800044F0080400BF00BF032744F48054214606
:100F90003846FFF725FBF0BD30B504460D4629461F
:100FA0002046FFF797FCFFF778FC944800889449A7
:100FB000088030BD70B52DED048B0446BE20FFF7D0
:100FC0001EFB0520FFF711FB204610F034FC41EC1E
:100FD000190B9FED8C0B53EC102B10F03FFC41ECE8
:100FE000180B10F0FBFB85B22846FFF7FEFA012034
:100FF000FFF7FBFAFF20FFF7F8FA0020FFF7F5FAFA
:101000000020FFF7F2FABDEC048B70BD10B504466A
:10101000002C66D178498871F02008804FF4A070C8
:1010200048800846808849F2413188420BD0724896
:10103000808846F60401884205D06F48808845F2D2
:10104000103188421AD12C206B4908812A2048810E
:101050002B2088810846808846F60401884205D006
:101060006548808845F21031884206D14FF4A0705F
:10107000614908804FF4F0704880A1E05E488088A4
:1010800045F21051884210D14FF430505A4908812E
:101090004FF4285048814FF42C5088814FF4F07061
:1010A00008804FF4487048808AE05348808841F6B1
:1010B000631188420DD12C204F4908812B20488193
:1010C0002A2088814FF4F07008804FF448704880DF
:1010D00076E022204849088120204881212088810B
:1010E0006EE00120444988714FF4A0700880F02020
:1010F00048800846808849F24131884205D03E4800
:10110000808845F21031884207D12C203A49088165
:101110002A2048812B2088813FE03748808846F686
:101120000401884207D12C20334908812B204881B3
:101130002A20888131E03048808845F21051884269
:1011400010D14FF430502C4908814FF42850488179
:101150004FF42C5088814FF4487008804FF4F070A1
:1011600048801AE02448808841F6631188420DD1F6
:101170002C20214908812A2048812B2088814FF486
:10118000487008804FF4F070488006E022201A4929
:10119000088121204881202088811748808846F6D0
:1011A0000401884205D01448808845F210318842F5
:1011B00006D14FF4F070104908804FF4A0704880B9
:1011C0000020FFF772FD10BD2DE9F04F86B00446F8
:1011D0000D469046994604EB0800401E86B205EB8A
:1011E0000900401E87B20448808849F24131884294
:1011F00020D00148808809E0F4020020140000207B
:101200000008006C666666666666044045F210314A
:1012100088420FD0FE48808846F60401884209D0F3
:10122000FB488079012826D1F948808841F663116E
:10123000884220D1F6494889FFF7E1F92012FFF7EB
:10124000D4F9E0B2FFF7D1F93012FFF7CEF9F0B2DE
:10125000FFF7CBF9EE498889FFF7D1F92812FFF79C
:10126000C4F9E8B2FFF7C1F93812FFF7BEF9F8B2D6
:10127000FFF7BBF9B8E0E648808841F66311884281
:1012800034D1E3480088A0EB0800001B84B205EBD2
:101290000900401E1FFA80F9DD494889FFF7AFF9C0
:1012A0002012FFF7A2F9E0B2FFF79FF904EB080163
:1012B000491EC1F30F20FFF798F904EB0801491EFE
:1012C000C8B2FFF792F9D2498889FFF798F9281236
:1012D000FFF78BF9E8B2FFF788F94FEA2920FFF70B
:1012E00084F909F0FF00FFF780F97DE0C8488088A5
:1012F00045F21051884244D1C5494889FFF77FF92A
:101300002012FFF772F9C2494989491C88B2FFF7D8
:1013100076F9E0B2FFF769F9BD494989891C88B2BD
:10132000FFF76DF93012FFF760F9B9494989C91C17
:1013300088B2FFF764F9F0B2FFF757F9B44988892A
:10134000FFF75DF92812FFF750F9B1498989491C67
:1013500088B2FFF754F9E8B2FFF747F9AC49898939
:10136000891C88B2FFF74BF93812FFF73EF9A849FC
:101370008989C91C88B2FFF742F9F8B2FFF735F93D
:1013800032E0A348807901280ED1AA46BB46A04886
:101390000088801B401E80B201909D480088001B81
:1013A000401E80B2009003E0A246B346019500972C
:1013B0005020059051200490522003905320029019
:1013C00051460598FFF70CF959460498FFF708F9BC
:1013D00001990398FFF704F900990298FFF700F9C3
:1013E00029462046FFF776FA06B0BDE8F08F70B5C3
:1013F00004460026864805884088454384488088FE
:1014000046F60401884216D181488079012812D11C
:1014100000207F4988712A2048812B208881002163
:101420000846FFF757FA0120794988712B20488137
:101430002A20888103E000210846FFF74BFAFFF7D6
:101440002CFA002602E073480480761CAE42FAD3E0
:1014500070BD00B5A1B00020209001217A2007F0D6
:101460003DFD0121084607F071FD01201E908DF819
:101470007C0000208DF87E0002208DF87D00012088
:101480008DF87F001EA9644806F0A6FF4CF2337069
:101490001E9002208DF87C0000208DF87E00032035
:1014A0008DF87D0001208DF87F001EA95B4806F0B5
:1014B00093FF4FF680701E9002208DF87C00002074
:1014C0008DF87E0003208DF87D0001208DF87F00CF
:1014D0001EA9534806F080FF41F201001E90022031
:1014E0008DF87C0000208DF87E0003208DF87D00B3
:1014F00001208DF87F001EA94A4806F06DFF0C22DE
:101500000021464806F0F3FF0C220121434806F073
:10151000EEFF0C220421414806F0E9FF0C220521D0
:101520003E4806F0E4FF0C2208213C4806F0DFFFAD
:101530000C220921394806F0DAFF0C220A2137482B
:1015400006F0D5FF0C220E21344806F0D0FF0C2205
:101550000F21324806F0CBFF0C220721304806F05D
:10156000C6FF0C2208212E4806F0C1FF0C220921DB
:101570002B4806F0BCFF0C220A21294806F0B7FFD1
:101580000C220B21264806F0B2FF0C2211462448FB
:1015900006F0ADFF0C220D21214806F0A8FF0C2219
:1015A0000E211F4806F0A3FF0C220F211C4806F055
:1015B0009EFF0C2200211B4806F099FF0C221146C9
:1015C000184806F094FF0F200890002009903C2056
:1015D0000A9000200B900C900D900E900920019025
:1015E00000200290082003900020049005900690AF
:1015F000079006200F90002010901190102012905C
:101600000020139015901490169017900CE0000095
:10161000F40200200008006C00040240000C0240AC
:1016200000100240001802404FF480501890002033
:1016300019904FF480401A9000201B9008A81C902D
:1016400001A81D900FA806F0A6FF0121062007F0B3
:101650002DF8322006F0E6FC01210020FEF7C0FF45
:10166000322006F0DFFC0020FFF70CF9FE498880ED
:1016700008468088FF280ADB084680884FF6FF71FD
:10168000884204D0F8488088B0F5134F7ED1D3202B
:10169000FEF7B5FFFFF7EEF8F3498880FFF7EAF8A9
:1016A000F1498880FFF7E6F8EF498880084680888E
:1016B0004FF6FF7101EA0020EB498880FFF7DAF866
:1016C000E94989880843E84988800846808849F2C2
:1016D000413188425AD0BF20FEF791FFFFF7CAF888
:1016E000E1498880FFF7C6F8DF498880FFF7C2F834
:1016F000DD498880FFF7BEF8DB498880084680888E
:101700004FF6FF7101EA0020D7498880FFF7B2F851
:10171000D54989880843D44988800846808846F698
:10172000040188427AD0D420FEF769FFFFF7A2F8BF
:10173000CD498880FFF79EF8CB498880FFF79AF85B
:10174000C9498880084680884FF6FF7101EA002069
:10175000C5498880FFF78EF8C34989880843C24984
:1017600088800846808845F21031884256D04FF470
:101770005A40FEF744FFFFF77DF8BB4988804FF4DD
:101780005B40FEF73CFFFFF775F800E046E0B64926
:101790008880084680884FF6FF7101EA0020B24930
:1017A00088804FF45C40FEF72AFFFFF763F8AE49EC
:1017B00089880843AC49888008468088B0F5004F86
:1017C00002D145F210508880A748808845F2105118
:1017D000884223D0A120FEF712FFFFF74BF8A24961
:1017E0008880FFF747F8A0498880084680884FF630
:1017F000FF7101EA00209C498880FFF73BF89A4975
:1018000089880843984988800846808845F2617134
:10181000884203D141F663109349888092488088BA
:1018200049F24131884211D08F48808845F2103109
:1018300088420BD08C48808845F21051884205D0F0
:101840008948808841F6631188421DD18748006825
:1018500020F00F004FF02041C1F81C010846D0F8DD
:101860001C0120F47060C1F81C010846D0F81C016E
:1018700040F00300C1F81C010846D0F81C0140F4F8
:101880000070C1F81C0128E07748808846F6040102
:10189000884205D0744880884CF2055188421CD19A
:1018A0007248006820F00F004FF02041C1F81C0181
:1018B0000846D0F81C0120F47060C1F81C010846ED
:1018C000D0F81C0140F00A00C1F81C010846D0F80D
:1018D0001C0140F44060C1F81C016348818864A089
:1018E0000FF09CFB6048808849F2413188427CD1EE
:1018F000CF20FEF784FE0020FEF777FEC120FEF722
:1019000074FE3020FEF771FEED20FEF778FE6420B5
:10191000FEF76BFE0320FEF768FE1220FEF765FE61
:101920008120FEF762FEE820FEF769FE8520FEF7C3
:101930005CFE1020FEF759FE7A20FEF756FECB2003
:10194000FEF75DFE3920FEF750FE2C20FEF74DFE1F
:101950000020FEF74AFE3420FEF747FE0220FEF785
:1019600044FEF720FEF74BFE2020FEF73EFEEA2065
:10197000FEF745FE0020FEF738FE0020FEF735FE9C
:10198000C020FEF73CFE1B20FEF72FFEC120FEF715
:1019900036FE0120FEF729FEC520FEF730FE30207E
:1019A000FEF723FE3020FEF720FEC720FEF727FEBD
:1019B000B720FEF71AFE3620FEF721FE4820FEF77C
:1019C00014FE3A20FEF71BFE5520FEF70EFEB12056
:1019D000FEF715FE0020FEF708FE1A20FEF705FEB2
:1019E000B620FEF70CFE0A2000E0A7E0FEF7FDFDA2
:1019F000A220FEF7FAFDF220FEF701FE0020FEF71E
:101A0000F4FD2620FEF7FBFD0120FEF7EEFDE020B1
:101A1000FEF7F5FD0F20FEF7E8FD2A20FEF7E5FDB5
:101A20002820FEF7E2FD0820FEF7DFFD0E20FEF77E
:101A3000DCFD0820FEF7D9FD5420FEF7D6FDA920D5
:101A4000FEF7D3FD4320FEF7D0FD0A20FEF7CDFDC3
:101A50000F20FEF7CAFD0020FEF7C7FD0020FEF7AD
:101A6000C4FD00200CE00000F40200201C0100A0D6
:101A7000204C43442049443A25780D0A00000000D8
:101A8000FEF7B3FD0020FEF7B0FDE120FEF7B7FD45
:101A90000020FEF7AAFD1520FEF7A7FD1720FEF790
:101AA000A4FD0720FEF7A1FD1120FEF79EFD0620F4
:101AB000FEF79BFD2B20FEF798FD5620FEF795FDC7
:101AC0003C20FEF792FD0520FEF78FFD1020FEF76B
:101AD0008CFD0F20FEF789FD3F20FEF786FD3F209D
:101AE000FEF783FD0F20FEF780FD2B20FEF787FD1C
:101AF0000020FEF77AFD0020FEF777FD0120FEF7BB
:101B000074FD3F20FEF771FD2A20FEF778FD0020CE
:101B1000FEF76BFD0020FEF768FD0020FEF765FD77
:101B2000EF20FEF762FD1120FEF769FD782006F038
:101B300079FA2920FEF763FD03F01DB9FE4880887D
:101B400046F6040188427CD11120FEF758FD14208E
:101B500006F068FAD020FEF752FD0720FEF745FD9B
:101B60004220FEF742FD1D20FEF73FFDD120FEF78B
:101B700046FD0020FEF739FD1A20FEF736FD09204C
:101B8000FEF733FDD220FEF73AFD0120FEF72DFDD2
:101B90002220FEF72AFDC020FEF731FD1020FEF7BF
:101BA00024FD3B20FEF721FD0020FEF71EFD022054
:101BB000FEF71BFD1120FEF718FDC520FEF71FFDE7
:101BC0000320FEF712FDC820FEF719FD0020FEF7E6
:101BD0000CFD2520FEF709FD2120FEF706FD05205E
:101BE000FEF703FD0020FEF700FD0A20FEF7FDFCD6
:101BF0006520FEF7FAFC2520FEF7F7FC7720FEF7BC
:101C0000F4FC5020FEF7F1FC0F20FEF7EEFC002064
:101C1000FEF7EBFCF820FEF7F2FC0120FEF7E5FCF6
:101C2000FE20FEF7ECFC0020FEF7DFFC0220FEF7B2
:101C3000DCFC2020FEF7E3FC3620FEF7E0FC082069
:101C400000E02CE0FEF7D1FC3A20FEF7D8FC55204E
:101C5000FEF7CBFC2B20FEF7D2FC0020FEF7C5FCE4
:101C60000020FEF7C2FC0120FEF7BFFC3F20FEF77C
:101C7000BCFC2A20FEF7C3FC0020FEF7B6FC0020C7
:101C8000FEF7B3FC0120FEF7B0FCDF20FEF7ADFC51
:101C9000782006F0C7F92920FEF7B1FC4CE7A648EA
:101CA000808845F21031884240F07C87ED20FEF7B5
:101CB000A6FC0120FEF799FCFE20FEF796FCEE2024
:101CC000FEF79DFCDE20FEF790FC2120FEF78DFC48
:101CD000F120FEF794FC0120FEF787FCDF20FEF7E1
:101CE0008EFC1020FEF781FCC420FEF788FC8F20BC
:101CF000FEF77BFCC620FEF782FC0020FEF775FC99
:101D0000E220FEF772FCE220FEF76FFCE220FEF715
:101D10006CFCBF20FEF773FCAA20FEF766FCB02027
:101D2000FEF76DFC0D20FEF760FC0020FEF75DFC69
:101D30000D20FEF75AFC0020FEF757FC1120FEF79D
:101D400054FC0020FEF751FC1920FEF74EFC002049
:101D5000FEF74BFC2120FEF748FC0020FEF745FC77
:101D60002D20FEF742FC0020FEF73FFC3D20FEF751
:101D70003CFC0020FEF739FC5D20FEF736FC00201D
:101D8000FEF733FC5D20FEF730FC0020FEF72DFC53
:101D9000B120FEF734FC8020FEF727FC0020FEF780
:101DA00024FC8B20FEF721FC0020FEF71EFC962071
:101DB000FEF71BFC0020FEF718FCB220FEF71FFC0C
:101DC0000020FEF712FC0020FEF70FFC0220FEF7B9
:101DD0000CFC0020FEF709FC0320FEF706FC0020A7
:101DE000FEF703FCB320FEF70AFC0020FEF7FDFB24
:101DF0000020FEF7FAFB0020FEF7F7FB0020FEF7BD
:101E0000F4FB0020FEF7F1FB0020FEF7EEFB0020C4
:101E1000FEF7EBFB0020FEF7E8FB0020FEF7E5FBFA
:101E20000020FEF7E2FB0020FEF7DFFB0020FEF7BC
:101E3000DCFB0020FEF7D9FB0020FEF7D6FB0020DC
:101E4000FEF7D3FB0020FEF7D0FB0020FEF7CDFB12
:101E50000020FEF7CAFB0020FEF7C7FB0020FEF7BC
:101E6000C4FB0020FEF7C1FB0020FEF7BEFB0020F4
:101E7000FEF7BBFB0020FEF7B8FBB420FEF7BFFB6C
:101E80008B20FEF7B2FB0020FEF7AFFB9620FEF79B
:101E9000ACFB0020FEF7A9FBA120FEF7A6FB00206B
:101EA000FEF7A3FBB520FEF7AAFB0220FEF79DFB81
:101EB0000020FEF79AFB0320FEF797FB0020FEF7B9
:101EC00094FB0420FEF791FB0020FEF78EFBB6206A
:101ED000FEF795FB0020FEF788FB0020FEF785FB50
:101EE000B720FEF78CFB0020FEF77FFB0020FEF7FB
:101EF0007CFB3F20FEF779FB0020FEF776FB5E209F
:101F0000FEF773FB0020FEF770FB6420FEF76DFB0D
:101F10000020FEF76AFB8C20FEF767FB0020FEF72F
:101F200064FBAC20FEF761FB0020FEF75EFBDC20CB
:101F3000FEF75BFB002001E0F4020020FEF755FBFA
:101F40007020FEF752FB0020FEF74FFB9020FEF7BB
:101F50004CFB0020FEF749FBEB20FEF746FB002080
:101F6000FEF743FBDC20FEF740FB0020FEF73DFBC5
:101F7000B820FEF744FB0020FEF737FB0020FEF7F9
:101F800034FB0020FEF731FB0020FEF72EFB002083
:101F9000FEF72BFB0020FEF728FB0020FEF725FBB9
:101FA0000020FEF722FBBA20FEF729FB2420FEF7D3
:101FB0001CFB0020FEF719FB0020FEF716FB00209B
:101FC000FEF713FBC120FEF71AFB2020FEF70DFBE6
:101FD0000020FEF70AFB5420FEF707FB0020FEF767
:101FE00004FBFF20FEF701FB0020FEF7FEFAC220F3
:101FF000FEF705FB0A20FEF7F8FA0020FEF7F5FAD7
:102000000420FEF7F2FA0020FEF7EFFAC320FEF7F5
:10201000F6FA3C20FEF7E9FA0020FEF7E6FA3A204D
:10202000FEF7E3FA0020FEF7E0FA3920FEF7DDFACA
:102030000020FEF7DAFA3720FEF7D7FA0020FEF785
:10204000D4FA3C20FEF7D1FA0020FEF7CEFA362073
:10205000FEF7CBFA0020FEF7C8FA3220FEF7C5FAE9
:102060000020FEF7C2FA2F20FEF7BFFA0020FEF78D
:10207000BCFA2C20FEF7B9FA0020FEF7B6FA2920A8
:10208000FEF7B3FA0020FEF7B0FA2620FEF7ADFA0D
:102090000020FEF7AAFA2420FEF7A7FA0020FEF798
:1020A000A4FA2420FEF7A1FA0020FEF79EFA2320CE
:1020B000FEF79BFA0020FEF798FA3C20FEF795FA0F
:1020C0000020FEF792FA3620FEF78FFA0020FEF786
:1020D0008CFA3220FEF789FA0020FEF786FA2F20CC
:1020E000FEF783FA0020FEF780FA2C20FEF77DFA37
:1020F0000020FEF77AFA2920FEF777FA0020FEF793
:1021000074FA2620FEF771FA0020FEF76EFA2420FA
:10211000FEF76BFA0020FEF768FA2420FEF765FA56
:102120000020FEF762FA2320FEF75FFA0020FEF798
:102130005CFAC420FEF763FA6220FEF756FA00202C
:10214000FEF753FA0520FEF750FA0020FEF74DFA8D
:102150008420FEF74AFA0020FEF747FAF020FEF747
:1021600044FA0020FEF741FA1820FEF73EFA00205C
:10217000FEF73BFAA420FEF738FA0020FEF735FA06
:102180001820FEF732FA0020FEF72FFA5020FEF753
:102190002CFA0020FEF729FA0C20FEF726FA002080
:1021A000FEF723FA1720FEF720FA0020FEF71DFAAB
:1021B0009520FEF71AFA0020FEF717FAF320FEF733
:1021C00014FA0020FEF711FAE620FEF70EFA0020BE
:1021D000FEF70BFAC520FEF712FA3220FEF705FAD9
:1021E0000020FEF702FA4420FEF7FFF90020FEF778
:1021F000FCF96520FEF7F9F90020FEF7F6F97620E4
:10220000FEF7F3F90020FEF7F0F98820FEF7EDF96C
:102210000020FEF7EAF9C620FEF7F1F92020FEF7CC
:10222000E4F90020FEF7E1F91720FEF7DEF90020BF
:10223000FEF7DBF90120FEF7D8F90020FEF7D5F90B
:10224000C720FEF7DCF90020FEF7CFF90020FEF7EB
:10225000CCF90020FEF7C9F90020FEF7C6F9C82026
:10226000FEF7CDF90020FEF7C0F90020FEF7BDF91A
:102270000020FEF7BAF90020FEF7B7F9C920FEF7F3
:10228000BEF90020FEF7B1F90020FEF7AEF90020FC
:10229000FEF7ABF90020FEF7A8F90020FEF7A5F93C
:1022A0000020FEF7A2F90020FEF79FF90020FEF7BC
:1022B0009CF90020FEF799F90020FEF796F900201E
:1022C000FEF793F90020FEF790F90020FEF78DF954
:1022D0000020FEF78AF90020FEF787F90020FEF7BC
:1022E00084F9E020FEF78BF91620FEF77EF9002036
:1022F000FEF77BF91C20FEF778F90020FEF775F950
:102300002120FEF772F90020FEF76FF93620FEF764
:102310006CF90020FEF769F94620FEF766F9002007
:10232000FEF763F95220FEF760F90020FEF75DF931
:102330006420FEF75AF90020FEF757F97A20FEF7DD
:1023400054F90020FEF751F98B20FEF74EF90020DA
:10235000FEF74BF99920FEF748F90020FEF745F902
:10236000A820FEF742F90020FEF73FF9B920FEF75A
:102370003CF90020FEF739F9C420FEF736F90020B9
:10238000FEF733F9CA20FEF730F90020FEF72DF9E9
:10239000D220FEF72AF90020FEF727F9D920FEF710
:1023A00024F90020FEF721F9E020FEF71EF90020B5
:1023B000FEF71BF9F320FEF718F90020FEF715F9D8
:1023C000E120FEF71CF91620FEF70FF90020FEF7BA
:1023D0000CF91C20FEF709F90020FEF706F922206F
:1023E000FEF703F90020FEF700F93620FEF7FDF8AE
:1023F0000020FEF7FAF84520FEF7F7F80020FEF778
:10240000F4F85220FEF7F1F80020FEF7EEF8642011
:10241000FEF7EBF80020FEF7E8F87A20FEF7E5F883
:102420000020FEF7E2F88B20FEF7DFF80020FEF731
:10243000DCF89920FEF7D9F80020FEF7D6F8A8209E
:10244000FEF7D3F80020FEF7D0F8B920FEF7CDF85C
:102450000020FEF7CAF8C420FEF7C7F80020FEF7F8
:10246000C4F8CA20FEF7C1F80020FEF7BEF8D2205B
:10247000FEF7BBF80020FEF7B8F8D820FEF7B5F855
:102480000020FEF7B2F8E020FEF7AFF80020FEF7DC
:10249000ACF8F320FEF7A9F80020FEF7A6F8E2203A
:1024A000FEF7ADF80520FEF7A0F80020FEF79DF836
:1024B0000B20FEF79AF80020FEF797F81B20FEF796
:1024C00094F80020FEF791F83420FEF78EF80020F3
:1024D000FEF78BF84420FEF788F80020FEF785F819
:1024E0004F20FEF782F80020FEF77FF86120FEF70C
:1024F0007CF80020FEF779F87920FEF776F80020C6
:10250000FEF773F88820FEF770F80020FEF76DF8EC
:102510009720FEF76AF80020FEF767F8A620FEF77E
:1025200064F80020FEF761F8B720FEF75EF800209F
:10253000FEF75BF8C220FEF758F80020FEF755F8CA
:10254000C720FEF752F80020FEF74FF8D120FEF723
:102550004CF80020FEF749F8D620FEF746F8002098
:10256000FEF743F8DD20FEF740F80020FEF73DF8C7
:10257000F320FEF73AF80020FEF737F8E320FEF7E5
:102580003EF80520FEF731F80020FEF72EF80A206D
:10259000FEF72BF80020FEF728F81C20FEF725F8A0
:1025A0000020FEF722F83320FEF71FF80020FEF788
:1025B0001CF84420FEF719F80020FEF716F850200A
:1025C000FEF713F80020FEF710F86220FEF70DF872
:1025D0000020FEF70AF87820FEF707F80020FEF743
:1025E00004F88820FEF701F80020FDF7FEFF972091
:1025F000FDF7FBFF0020FDF7F8FFA620FDF7F5FF34
:102600000020FDF7F2FFB720FDF7EFFF0020FDF7F8
:10261000ECFFC220FDF7E9FF0020FDF7E6FFC72031
:10262000FDF7E3FF0020FDF7E0FFD120FDF7DDFF20
:102630000020FDF7DAFFD520FDF7D7FF0020FDF7DA
:10264000D4FFDD20FDF7D1FF0020FDF7CEFFF32002
:10265000FDF7CBFF0020FDF7C8FFE420FDF7CFFF1B
:102660000120FDF7C2FF0020FDF7BFFF0120FDF7AD
:10267000BCFF0020FDF7B9FF0220FDF7B6FF0020E8
:10268000FDF7B3FF2A20FDF7B0FF0020FDF7ADFFF7
:102690003C20FDF7AAFF0020FDF7A7FF4B20FDF728
:1026A000A4FF0020FDF7A1FF5D20FDF79EFF0020A5
:1026B000FDF79BFF7420FDF798FF0020FDF795FFC5
:1026C0008420FDF792FF0020FDF78FFF9320FDF798
:1026D0008CFF0020FDF789FFA220FDF786FF002078
:1026E000FDF783FFB320FDF780FF0020FDF77DFF9E
:1026F000BE20FDF77AFF0020FDF777FFC420FDF72D
:1027000074FF0020FDF771FFCD20FDF76EFF002064
:10271000FDF76BFFD320FDF768FF0020FDF765FF95
:10272000DD20FDF762FF0020FDF75FFFF320FDF7DE
:102730005CFF0020FDF759FFE520FDF760FF00205A
:10274000FDF753FF0020FDF750FF0020FDF74DFF80
:102750000020FDF74AFF0220FDF747FF0020FDF7AC
:1027600044FF2920FDF741FF0020FDF73EFF3C20FC
:10277000FDF73BFF0020FDF738FF4B20FDF735FF4D
:102780000020FDF732FF5D20FDF72FFF0020FDF751
:102790002CFF7420FDF729FF0020FDF726FF842081
:1027A000FDF723FF0020FDF720FF9320FDF71DFF1D
:1027B0000020FDF71AFFA220FDF717FF0020FDF70C
:1027C00014FFB320FDF711FF0020FDF70EFFBE2020
:1027D000FDF70BFF0020FDF708FFC420FDF705FF04
:1027E0000020FDF702FFCD20FDF7FFFE0020FDF7E2
:1027F000FCFED320FDF7F9FE0020FDF7F6FEDC20FD
:10280000FDF7F3FE0020FDF7F0FEF320FDF7EDFEEF
:102810000020FDF7EAFEE620FDF7F1FE1120FDF7AE
:10282000E4FE0020FDF7E1FE3420FDF7DEFE00208F
:10283000FDF7DBFE5620FDF7D8FE0020FDF7D5FEA4
:102840007620FDF7D2FE0020FDF7CFFE7720FDF7C2
:10285000CCFE0020FDF7C9FE6620FDF7C6FE002075
:10286000FDF7C3FE8820FDF7C0FE0020FDF7BDFE8A
:102870009920FDF7BAFE0020FDF7B7FEBB20FDF75B
:10288000B4FE0020FDF7B1FE9920FDF7AEFE00205A
:10289000FDF7ABFE6620FDF7A8FE0020FDF7A5FEC4
:1028A0005520FDF7A2FE0020FDF79FFE5520FDF705
:1028B0009CFE0020FDF799FE4520FDF796FE0020C6
:1028C000FDF793FE4320FDF790FE0020FDF78DFEFF
:1028D0004420FDF78AFE0020FDF787FEE720FDF784
:1028E0008EFE3220FDF781FE0020FDF77EFE552092
:1028F000FDF77BFE0020FDF778FE7620FDF775FEE4
:102900000020FDF772FE6620FDF76FFE0020FDF748
:102910006CFE6720FDF769FE0020FDF766FE67206C
:10292000FDF763FE0020FDF760FE8720FDF75DFEEA
:102930000020FDF75AFE9920FDF757FE0020FDF715
:1029400054FEBB20FDF751FE0020FDF74EFE9920FE
:10295000FDF74BFE0020FDF748FE7720FDF745FE12
:102960000020FDF742FE4420FDF73FFE0020FDF76A
:102970003CFE5620FDF739FE0020FDF736FE2320F1
:10298000FDF733FE0020FDF730FE3320FDF72DFE6E
:102990000020FDF72AFE4520FDF727FE0020FDF769
:1029A00024FEE820FDF72BFE0020FDF71EFE002090
:1029B000FDF71BFE9920FDF718FE0020FDF715FE20
:1029C0008720FDF712FE0020FDF70FFE8820FDF79F
:1029D0000CFE0020FDF709FE7720FDF706FE002023
:1029E000FDF703FE6620FDF700FE0020FDF7FDFD6C
:1029F0008820FDF7FAFD0020FDF7F7FDAA20FDF77E
:102A0000F4FD0020FDF7F1FDBB20FDF7EEFD0020F9
:102A1000FDF7EBFD9920FDF7E8FD0020FDF7E5FD52
:102A20006620FDF7E2FD0020FDF7DFFD5520FDF7F4
:102A3000DCFD0020FDF7D9FD5520FDF7D6FD002077
:102A4000FDF7D3FD4420FDF7D0FD0020FDF7CDFDBF
:102A50004420FDF7CAFD0020FDF7C7FD5520FDF716
:102A6000C4FD0020FDF7C1FDE920FDF7C8FDAA2047
:102A7000FDF7BBFD0020FDF7B8FD0020FDF7B5FD1B
:102A80000020FDF7B2FD0020FDF7B9FDAA20FDF7FB
:102A9000ACFDCF20FDF7B3FD0020FDF7A6FD002023
:102AA000FDF7A3FD0020FDF7A0FD0020FDF79DFD33
:102AB0000020FDF79AFD0020FDF797FD0020FDF7AF
:102AC00094FD0020FDF791FD0020FDF78EFD002014
:102AD000FDF78BFD0020FDF788FD0020FDF785FD4B
:102AE0000020FDF782FD0020FDF77FFD0020FDF7AF
:102AF0007CFD0020FDF779FD0020FDF776FDF0203C
:102B0000FDF77DFD0020FDF770FD5020FDF76DFD08
:102B10000020FDF76AFD0020FDF767FD0020FDF7AE
:102B200064FDF320FDF76BFD0020FDF75EFDF9204D
:102B3000FDF765FD0620FDF758FD1020FDF755FD5A
:102B40002920FDF752FD0020FDF74FFD3A20FDF74B
:102B500056FD5520FDF749FD1120FDF750FD64207D
:102B600005F060FA2920FDF74AFD3520FDF747FD05
:102B70000020FDF73AFD5120FDF741FDFF20FDF754
:102B800034FD5320FDF73BFD2C20FDF72EFD552095
:102B9000FDF735FD8220FDF728FD2C20FDF72FFDE8
:102BA00002F0E9B8FE48808845F2105188427DD194
:102BB00055214FF47040FDF713FDAA214FF201009B
:102BC000FDF70EFD52214FF20200FDF709FD08212D
:102BD0004FF20300FDF704FD01214FF20400FDF761
:102BE000FFFC0D214FF43040FDF7FAFC0D214BF2B4
:102BF0000100FDF7F5FC0D214BF20200FDF7F0FCA2
:102C000034214FF43640FDF7EBFC34214BF20160E8
:102C1000FDF7E6FC34214BF20260FDF7E1FC0D21EB
:102C20004FF43140FDF7DCFC0D214BF20110FDF7B4
:102C3000D7FC0D214BF20210FDF7D2FC34214FF4EA
:102C40003740FDF7CDFC34214BF20170FDF7C8FC95
:102C500034214BF20270FDF7C3FC00214FF43240E7
:102C6000FDF7BEFC00214BF20120FDF7B9FC00216D
:102C70004BF20220FDF7B4FC24214FF43840FDF75D
:102C8000AFFC24214BF60100FDF7AAFC24214BF6F2
:102C90000200FDF7A5FC01214FF43F40FDF7A0FC29
:102CA0000F214FF43340FDF79BFC00E0FDE30F21C3
:102CB0004BF20130FDF794FC0F214BF20230FDF78F
:102CC0008FFC34214FF43940FDF78AFC34214BF658
:102CD0000110FDF785FC34214BF60210FDF780FC56
:102CE00008214FF43540FDF77BFC08214BF20150E1
:102CF000FDF776FC08214BF20250FDF771FC032131
:102D00004FF44240FDF76CFC24214FF43A40FDF7AC
:102D100067FC24214BF60120FDF762FC24214BF6D1
:102D20000220FDF75DFC00214FF43C40FDF758FC0C
:102D300078214BF60140FDF753FC00214BF6024091
:102D4000FDF74EFC00214FF43D40FDF749FC782192
:102D50004BF60150FDF744FC00214BF60250FDF705
:102D60003FFC00214FF43E40FDF73AFC64214BF656
:102D70000160FDF735FC00214FF45140FDF730FCB8
:102D800033214DF20110FDF72BFC00214DF2021012
:102D9000FDF726FC34214DF20310FDF721FC002144
:102DA0004DF20410FDF71CFC3A214DF20510FDF721
:102DB00017FC00214DF20610FDF712FC4A214DF2DE
:102DC0000710FDF70DFC00214DF20810FDF708FC7F
:102DD0005C214DF20910FDF703FC00214DF20A10B1
:102DE000FDF7FEFB81214DF20B10FDF7F9FB0021F1
:102DF0004DF20C10FDF7F4FBA6214DF20D10FDF77E
:102E0000EFFB00214DF20E10FDF7EAFBE5214DF23C
:102E10000F10FDF7E5FB01214DF21010FDF7E0FB6F
:102E200013214DF21110FDF7DBFB01214DF21210C1
:102E3000FDF7D6FB54214DF21310FDF7D1FB012114
:102E40004DF21410FDF7CCFB82214DF21510FDF769
:102E5000C7FB01214DF21610FDF7C2FBCA214DF24E
:102E60001710FDF7BDFB02214DF21810FDF7B8FB5E
:102E700000214DF21910FDF7B3FB02214DF21A109B
:102E8000FDF7AEFB01214DF21B10FDF7A9FB02215E
:102E90004DF21C10FDF7A4FB34214DF21D10FDF77F
:102EA0009FFB02214DF21E10FDF79AFB67214DF2A8
:102EB0001F10FDF795FB02214DF22010FDF790FB4E
:102EC00084214DF22110FDF78BFB02214DF22210DF
:102ED000FDF786FBA4214DF22310FDF781FB0221B3
:102EE0004DF22410FDF77CFBB7214DF22510FDF7C4
:102EF00077FB02214DF22610FDF772FBCF214DF238
:102F00002710FDF76DFB02214DF22810FDF768FB3D
:102F1000DE214DF22910FDF763FB02214DF22A104C
:102F2000FDF75EFBF2214DF22B10FDF759FB02215C
:102F30004DF22C10FDF754FBFE214DF22D10FDF744
:102F40004FFB03214DF22E10FDF74AFB10214DF2ED
:102F50002F10FDF745FB03214DF23010FDF740FB2C
:102F600033214DF23110FDF73BFB03214DF23210BE
:102F7000FDF736FB6D214DF23310FDF731FB0021DB
:102F80004FF45240FDF72CFB33214DF20120FDF7A9
:102F900027FB00214DF20220FDF722FB342101E046
:102FA000F40200204DF20320FDF71AFB00214DF240
:102FB0000420FDF715FB3A214DF20520FDF710FB2B
:102FC00000214DF20620FDF70BFB4A214DF20720B0
:102FD000FDF706FB00214DF20820FDF701FB5C2107
:102FE0004DF20920FDF7FCFA00214DF20A20FDF711
:102FF000F7FA81214DF20B20FDF7F2FA00214DF294
:103000000C20FDF7EDFAA6214DF20D20FDF7E8FAB0
:1030100000214DF20E20FDF7E3FAE5214DF20F20DD
:10302000FDF7DEFA01214DF21020FDF7D9FA132148
:103030004DF21120FDF7D4FA01214DF21220FDF7D7
:10304000CFFA54214DF21320FDF7CAFA01214DF2B7
:103050001420FDF7C5FA82214DF21520FDF7C0FAC4
:1030600001214DF21620FDF7BBFACA214DF21720BF
:10307000FDF7B6FA02214DF21820FDF7B1FA002152
:103080004DF21920FDF7ACFA02214DF21A20FDF79E
:10309000A7FA01214DF21B20FDF7A2FA02214DF201
:1030A0001C20FDF79DFA34214DF21D20FDF798FA02
:1030B00002214DF21E20FDF793FA67214DF21F20E9
:1030C000FDF78EFA02214DF22020FDF789FA8421C6
:1030D0004DF22120FDF784FA02214DF22220FDF766
:1030E0007FFAA4214DF22320FDF77AFA02214DF256
:1030F0002420FDF775FAB7214DF22520FDF770FA6F
:1031000002214DF22620FDF76BFACF214DF2272048
:10311000FDF766FA02214DF22820FDF761FADE2163
:103120004DF22920FDF75CFA02214DF22A20FDF72D
:1031300057FAF2214DF22B20FDF752FA02214DF2FF
:103140002C20FDF74DFAFE214DF22D20FDF748FA17
:1031500003214DF22E20FDF743FA10214DF22F20CE
:10316000FDF73EFA03214DF23020FDF739FA332105
:103170004DF23120FDF734FA03214DF23220FDF7F4
:103180002FFA6D214DF23320FDF72AFA00214FF47A
:103190005340FDF725FA33214DF20130FDF720FAB7
:1031A00000214DF20230FDF71BFA34214DF20330BD
:1031B000FDF716FA00214DF20430FDF711FA3A211D
:1031C0004DF20530FDF70CFA00214DF20630FDF707
:1031D00007FA4A214DF20730FDF702FA00214DF2BD
:1031E0000830FDF7FDF95C214DF20930FDF7F8F9E3
:1031F00000214DF20A30FDF7F3F981214DF20B3039
:10320000FDF7EEF900214DF20C30FDF7E9F9A621AA
:103210004DF20D30FDF7E4F900214DF20E30FDF7CF
:10322000DFF9E5214DF20F30FDF7DAF901214DF21A
:103230001030FDF7D5F913214DF21130FDF7D0F91B
:1032400001214DF21230FDF7CBF954214DF213302C
:10325000FDF7C6F901214DF21430FDF7C1F98221C5
:103260004DF21530FDF7BCF901214DF21630FDF796
:10327000B7F9CA214DF21730FDF7B2F902214DF22C
:103280001830FDF7ADF900214DF21930FDF7A8F91E
:1032900002214DF21A30FDF7A3F901214DF21B3046
:1032A000FDF79EF902214DF21C30FDF799F934210A
:1032B0004DF21D30FDF794F902214DF21E30FDF75D
:1032C0008FF967214DF21F30FDF78AF902214DF287
:1032D0002030FDF785F984214DF22130FDF780F98A
:1032E00002214DF22230FDF77BF9A4214DF223306B
:1032F000FDF776F902214DF22430FDF771F9B7217F
:103300004DF22530FDF76CF902214DF22630FDF724
:1033100067F9CF214DF22730FDF762F902214DF216
:103320002830FDF75DF9DE214DF22930FDF758F91F
:1033300002214DF22A30FDF753F9F2214DF22B30E4
:10334000FDF74EF902214DF22C30FDF749F9FE212F
:103350004DF22D30FDF744F903214DF22E30FDF7EB
:103360003FF910214DF22F30FDF73AF903214DF2CC
:103370003030FDF735F933214DF23130FDF730F9BA
:1033800003214DF23230FDF72BF96D214DF2333030
:10339000FDF726F900214FF45440FDF721F93321C0
:1033A0004DF20140FDF71CF900214DF20240FDF7FE
:1033B00017F934214DF20340FDF712F900214DF2C7
:1033C0000440FDF70DF93A214DF20540FDF708F9EB
:1033D00000214DF20640FDF703F94A214DF2074066
:1033E000FDF7FEF800214DF20840FDF7F9F85C21E9
:1033F0004DF20940FDF7F4F800214DF20A40FDF7C7
:10340000EFF881214DF20B40FDF7EAF800214DF273
:103410000C40FDF7E5F8A6214DF20D40FDF7E0F870
:1034200000214DF20E40FDF7DBF8E5214DF20F4093
:10343000FDF7D6F801214DF21040FDF7D1F8132128
:103440004DF21140FDF7CCF801214DF21240FDF78D
:10345000C7F854214DF21340FDF7C2F801214DF297
:103460001440FDF7BDF882214DF21540FDF7B8F884
:1034700001214DF21640FDF7B3F8CA214DF2174075
:10348000FDF7AEF802214DF21840FDF7A9F8002132
:103490004DF21940FDF7A4F802214DF21A40FDF754
:1034A0009FF801214DF21B4000E006E3FDF798F87C
:1034B00002214DF21C40FDF793F834214DF21D40DE
:1034C000FDF78EF802214DF21E40FDF789F86721C5
:1034D0004DF21F40FDF784F802214DF22040FDF728
:1034E0007FF884214DF22140FDF77AF802214DF258
:1034F0002240FDF775F8A4214DF22340FDF770F846
:1035000002214DF22440FDF76BF8B7214DF2254022
:10351000FDF766F802214DF22640FDF761F8CF2154
:103520004DF22740FDF75CF802214DF22840FDF7EF
:1035300057F8DE214DF22940FDF752F802214DF2F5
:103540002A40FDF74DF8F2214DF22B40FDF748F8E7
:1035500002214DF22C40FDF743F8FE214DF22D40A3
:10356000FDF73EF803214DF22E40FDF739F810210A
:103570004DF22F40FDF734F803214DF23040FDF7B6
:103580002FF833214DF23140FDF72AF803214DF297
:103590003240FDF725F86D214DF23340FDF720F85C
:1035A00000214FF45540FDF71BF833214DF2015037
:1035B000FDF716F800214DF20250FDF711F8342105
:1035C0004DF20350FDF70CF800214DF20450FDF7C9
:1035D00007F83A214DF20550FDF702F800214DF2AF
:1035E0000650FCF7FDFF4A214DF20750FCF7F8FFAB
:1035F00000214DF20850FCF7F3FF5C214DF2095019
:10360000FCF7EEFF00214DF20A50FCF7E9FF8121A3
:103610004DF20B50FCF7E4FF00214DF20C50FCF78B
:10362000DFFFA6214DF20D50FCF7DAFF00214DF22D
:103630000E50FCF7D5FFE5214DF20F50FCF7D0FFFF
:1036400001214DF21050FCF7CBFF13214DF2115028
:10365000FCF7C6FF01214DF21250FCF7C1FF5421C7
:103660004DF21350FCF7BCFF01214DF21450FCF752
:10367000B7FF82214DF21550FCF7B2FF01214DF248
:103680001650FCF7ADFFCA214DF21750FCF7A8FF0A
:1036900002214DF21850FCF7A3FF00214DF2195002
:1036A000FCF79EFF02214DF21A50FCF799FF012111
:1036B0004DF21B50FCF794FF02214DF21C50FCF719
:1036C0008FFF34214DF21D50FCF78AFF02214DF28D
:1036D0001E50FCF785FF67214DF21F50FCF780FF5D
:1036E00002214DF22050FCF77BFF84214DF2215046
:1036F000FCF776FF02214DF22250FCF771FFA42166
:103700004DF22350FCF76CFF02214DF22450FCF7E0
:1037100067FFB7214DF22550FCF762FF02214DF201
:103720002650FCF75DFFCF214DF22750FCF758FFE4
:1037300002214DF22850FCF753FFDE214DF22950B3
:10374000FCF74EFF02214DF22A50FCF749FFF2210F
:103750004DF22B50FCF744FF02214DF22C50FCF7A8
:103760003FFFFE214DF22D50FCF73AFF03214DF2B1
:103770002E50FCF735FF10214DF22F50FCF730FF93
:1037800003214DF23050FCF72BFF33214DF2315025
:10379000FCF726FF03214DF23250FCF721FF6D218B
:1037A0004DF23350FCF71CFF00214FF45640FCF75C
:1037B00017FF33214DF20160FCF712FF00214DF29B
:1037C0000260FCF70DFF34214DF20360FCF708FFA7
:1037D00000214DF20460FCF703FF3A214DF2056031
:1037E000FCF7FEFE00214DF20660FCF7F9FE4A21CF
:1037F0004DF20760FCF7F4FE00214DF20860FCF783
:10380000EFFE5C214DF20960FCF7EAFE00214DF26B
:103810000A60FCF7E5FE81214DF20B60FCF7E0FE4B
:1038200000214DF20C60FCF7DBFEA6214DF20D608D
:10383000FCF7D6FE00214DF20E60FCF7D1FEE5212B
:103840004DF20F60FCF7CCFE01214DF21060FCF749
:10385000C7FE13214DF21160FCF7C2FE01214DF2AB
:103860001260FCF7BDFE54214DF21360FCF7B8FE68
:1038700001214DF21460FCF7B3FE82214DF2156078
:10388000FCF7AEFE01214DF21660FCF7A9FECA213D
:103890004DF21760FCF7A4FE02214DF21860FCF710
:1038A0009FFE00214DF21960FCF79AFE02214DF2B5
:1038B0001A60FCF795FE01214DF21B60FCF790FEAB
:1038C00002214DF21C60FCF78BFE34214DF21D608D
:1038D000FCF786FE02214DF21E60FCF781FE672197
:1038E0004DF21F60FCF77CFE02214DF22060FCF7D8
:1038F00077FE84214DF22160FCF772FE02214DF229
:103900002260FCF76DFEA4214DF22360FCF768FEF7
:1039100002214DF22460FCF763FEB7214DF22560D1
:10392000FCF75EFE02214DF22660FCF759FECF2126
:103930004DF22760FCF754FE02214DF22860FCF79F
:103940004FFEDE214DF22960FCF74AFE02214DF2C6
:103950002A60FCF745FEF2214DF22B60FCF740FE99
:1039600002214DF22C60FCF73BFEFE214DF22D6052
:10397000FCF736FE03214DF22E60FCF731FE1021DC
:103980004DF22F60FCF72CFE03214DF23060FCF766
:1039900027FE33214DF23160FCF722FE03214DF268
:1039A0003260FCF71DFE6D214DF23360FCF718FE0E
:1039B00055214FF47040FCF713FEAA214FF201008D
:1039C000FCF70EFE52214FF20200FCF709FE08211F
:1039D0004FF20300FCF704FE00214FF20400FCF755
:1039E000FFFDCC214FF43140FCF7FAFD00214BF2F2
:1039F0000110FCF7F5FD05214FF43640FCF7F0FD12
:103A000070214FF43740FCF7EBFD70214BF2017051
:103A1000FCF7E6FD01214FF43840FCF7E1FD0321FE
:103A20004BF60100FCF7DCFD03214BF60200FCF72E
:103A3000D7FD03214BF60300FCF7D2FD02214FF422
:103A40003C40FCF7CDFD00214BF60140FCF7C8FDE2
:103A500000214BF60240FCF7C3FDD0214FF4494052
:103A6000FCF7BEFD02214CF60110FCF7B9FD502118
:103A70004CF60210FCF7B4FD50214CF60310FCF795
:103A8000AFFD50214CF60410FCF7AAFD00214FF4C5
:103A90005450FCF7A5FD55214FF46850FCF7A0FDEC
:103AA0004FF48850FCF7ABFD782004F073FA4FF424
:103AB0002450FCF7A4FD01F05EB9FE48808849F26D
:103AC000253188427ED147F6F001E520FCF788FDDC
:103AD0004FF480710120FCF783FD4FF4E061022078
:103AE000FCF77EFD41F230010320FCF779FD002157
:103AF0000420FCF775FD40F202210820FCF770FD60
:103B000000210920FCF76CFD00210A20FCF768FD6C
:103B100000210C20FCF764FD00210D20FCF760FD66
:103B200000210F20FCF75CFD00211020FCF758FD60
:103B300007211120FCF754FD00211220FCF750FD55
:103B400000211320FCF74CFD00210720FCF748FD65
:103B500041F290611020FCF743FD40F22721112033
:103B6000FCF73EFD9D211220FCF73AFD4FF4C851B1
:103B70001320FCF735FD25212920FCF731FD0D210F
:103B80002B20FCF72DFD07213020FCF729FD40F20A
:103B900003313120FCF724FD03213220FCF720FD06
:103BA00040F206213520FCF71BFD08213620FCF7EA
:103BB00017FD40F206413720FCF712FD4FF441712A
:103BC000382000E057E0FCF70BFD07213920FCF717
:103BD00007FD40F202613C20FCF702FD08213D2078
:103BE000FCF7FEFC00215020FCF7FAFCEF215120ED
:103BF000FCF7F6FC00215220FCF7F2FC40F23F11EA
:103C00005320FCF7EDFC4FF427416020FCF7E8FC63
:103C100001216120FCF7E4FC00216A20FCF7E0FCB4
:103C200000218020FCF7DCFC00218120FCF7D8FC7F
:103C300000218220FCF7D4FC00218320FCF7D0FC7B
:103C400000218420FCF7CCFC00218520FCF7C8FC77
:103C500010219020FCF7C4FC4FF4C0619220FCF7C7
:103C6000BFFC40F233110720FCF7BAFC22210020F0
:103C7000FCF7B6FC1FE78F48808849F2283188425C
:103C80007ED141F28F01EC20FCF7AAFC41F23421F5
:103C9000EF20FCF7A5FC4FF480710120FCF7A0FC9D
:103CA0004FF4E0610220FCF79BFC41F2300103205D
:103CB000FCF796FC00210420FCF792FC40F2022164
:103CC0000820FCF78DFC00210920FCF789FC00216D
:103CD0000A20FCF785FC01210C20FCF781FC002167
:103CE0000D20FCF77DFC00210F20FCF779FC002162
:103CF0001020FCF775FC07211120FCF771FC002156
:103D00001220FCF76DFC00211320FCF769FC012157
:103D10000720FCF765FC322004F084F941F2904161
:103D20001020FCF75DFC40F227211120FCF758FC25
:103D3000322004F077F98A211220FCF751FC32205E
:103D400004F070F94FF4D0511320FCF749FC062120
:103D50002920FCF745FC0D212B20FCF741FC3220EB
:103D600004F060F900212020FCF73AFC002121201A
:103D7000FCF736FC322004F055F90021302000E039
:103D800074E0FCF72DFC40F204613120FCF728FCC4
:103D900040F205313220FCF723FC00213520FCF7EE
:103DA0001FFC40F609413620FCF71AFC4FF4017164
:103DB0003720FCF715FC40F201313820FCF710FCED
:103DC00040F207713920FCF70BFC00213C20FCF786
:103DD00007FC40F60A213D20FCF702FC322004F0EB
:103DE00021F900215020FCF7FBFBEF215120FCF7CB
:103DF000F7FB00215220FCF7F3FB40F23F11532068
:103E0000FCF7EEFB4FF427416020FCF7E9FB0121B2
:103E10006120FCF7E5FB00216A20FCF7E1FB0021B3
:103E20008020FCF7DDFB00218120FCF7D9FB00217D
:103E30008220FCF7D5FB00218320FCF7D1FB002179
:103E40008420FCF7CDFB00218520FCF7C9FB102165
:103E50009020FCF7C5FB4FF4C0619220FCF7C0FB3B
:103E600040F233110720FCF7BBFB24E611488088A1
:103E700049F2203188427DD100210846FCF7B0FB91
:103E80004FF480710120FCF7ABFB4FF4E06102209E
:103E9000FCF7A6FB41F230010320FCF7A1FB002157
:103EA0000420FCF79DFB40F202210820FCF798FB60
:103EB000002101E0F40200200920FCF791FB002121
:103EC0000A20FCF78DFB01210C20FCF789FB002167
:103ED0000D20FCF785FB00210F20FCF781FB322031
:103EE00004F0A0F840F201110720FCF779FB322022
:103EF00004F098F84FF486511020FCF771FB07216D
:103F00001120FCF76DFB4FF488711220FCF768FB61
:103F10004FF430611320FCF763FB00212920FCF7EC
:103F20005FFB44F210012B20FCF75AFB00215020CC
:103F3000FCF756FBEF215120FCF752FB00215220E9
:103F4000FCF74EFB40F23F115320FCF749FB4FF4C6
:103F50001C516020FCF744FB01216120FCF740FB71
:103F600000216A20FCF73CFB00218020FCF738FB95
:103F7000002100E031E08120FCF732FB00218220AB
:103F8000FCF72EFB00218320FCF72AFB0021842074
:103F9000FCF726FB00218520FCF722FB1021902056
:103FA000FCF71EFB00219220FCF71AFB0121932055
:103FB000FCF716FB4FF488719520FCF711FB0021EC
:103FC0009720FCF70DFB00219820FCF709FB40F23D
:103FD00073110720FCF704FB6DE5FE48808849F269
:103FE000313188427DD141F21401E720FCF7F8FA23
:103FF0004FF480710120FCF7F3FA4FF400710220B6
:10400000FCF7EEFA41F238010320FCF7E9FA40F23E
:1040100002210820FCF7E4FA00210920FCF7E0FA6D
:1040200000210A20FCF7DCFA00210C20FCF7D8FA6A
:1040300000210D20FCF7D4FA00210F20FCF7D0FA64
:1040400000211020FCF7CCFA07211120FCF7C8FA58
:1040500000211220FCF7C4FA00211320FCF7C0FA5B
:10406000C82003F0DFFF41F290611020FCF7B8FA9E
:1040700040F227211120FCF7B3FA322003F0D2FFDF
:104080000C211220FCF7ACFA322003F0CBFF4FF4E6
:1040900000611320FCF7A4FA11212920FCF7A0FAF3
:1040A0000B212B20FCF79CFA322003F0BBFF0021F0
:1040B0002020FCF795FA40F23F112120FCF790FAFE
:1040C00000213020FCF78CFA4FF483713120FCF78B
:1040D00087FA00213220FCF783FA4FF40171352072
:1040E00000E064E0FCF77CFA41F20A613620FCF75C
:1040F00077FA40F207713720FCF772FA4FF48371B8
:104100003820FCF76DFA40F207713920FCF768FAA5
:1041100040F202413C20FCF763FA40F60F413D209B
:10412000FCF75EFA00215020FCF75AFAEF215120EB
:10413000FCF756FA00215220FCF752FA40F23F11E8
:104140005320FCF74DFA4FF41C516020FCF748FA5D
:1041500001216120FCF744FA00216A20FCF740FAB3
:1041600000218020FCF73CFA00218120FCF738FA7E
:1041700000218220FCF734FA00218320FCF730FA7A
:1041800000218420FCF72CFA00218520FCF728FA76
:1041900010219020FCF724FA4FF4C0619220FCF724
:1041A0001FFA40F233110720FCF71AFA83E489481A
:1041B000808845F2084188427ED14FF48071012009
:1041C000FCF70EFA4FF4E0610220FCF709FA41F225
:1041D00030010320FCF704FA00210420FCF700FA68
:1041E00040F207210820FCF7FBF900210920FCF729
:1041F000F7F900210A20FCF7F3F900210C20FCF765
:10420000EFF900210D20FCF7EBF900210F20FCF75E
:10421000E7F9142003F006FF41F2B0611020FCF72B
:10422000DFF901211120FCF7DBF901211720FCF750
:10423000D7F94FF49C711220FCF7D2F94FF40061CA
:104240001320FCF7CDF909212920FCF7C9F9092130
:104250002A20FCF7C5F90021A420FCF7C1F90021B0
:104260005020FCF7BDF9EF215120FCF7B9F90021EE
:104270005220FCF7B5F940F23F115320FCF7B0F99A
:104280004FF41C516020FCF7ABF901216120FCF7D1
:10429000A7F900216A20FCF7A3F900218020FCF790
:1042A0009FF900218120FCF79BF900218220FCF777
:1042B00097F90021832000E023E0FCF791F9002129
:1042C0008420FCF78DF900218520FCF789F9132162
:1042D0009020FCF785F900219220FCF781F9032159
:1042E0009320FCF77DF94FF488719520FCF778F95D
:1042F00040F273110720FCF773F9322003F092FEAD
:10430000B8E43448808841F2055188427ED10021CA
:104310000720FCF765F9322003F084FE4FF48E711C
:104320001220FCF75DF90121A420FCF759F90F21B7
:104330000820FCF755F908210A20FCF751F908215B
:104340000D20FCF74DF940F207713020FCF748F9D9
:1043500007213120FCF744F940F203613220FCF7D9
:104360003FF94FF4E0613320FCF73AF940F20221C3
:104370003420FCF735F902213520FCF731F941F6FC
:104380000F713620FCF72CF940F207713720FCF74B
:1043900027F900213820FCF723F900213920FCF708
:1043A0001FF940F207713A20FCF71AF900213B206F
:1043B000FCF716F907213C20FCF712F900213D20FB
:1043C000FCF70EF9322003F02DFE01210720FCF747
:1043D00007F901E0F402002001211720FCF700F9A1
:1043E000322003F01FFE4FF4BD511020FCF7F8F807
:1043F00040F217211120FCF7F3F84FF48F711220CF
:10440000FCF7EEF84FF47061132000E097E0FCF742
:10441000E7F800212A20FCF7E3F80A212920FCF71D
:10442000DFF84FF49F711220FCF7DAF800215020DA
:10443000FCF7D6F8EF215120FCF7D2F800215220EA
:10444000FCF7CEF840F23F115320FCF7C9F84FF4C7
:104450001C516020FCF7C4F801216120FCF7C0F872
:1044600000216A20FCF7BCF800218020FCF7B8F896
:1044700000218120FCF7B4F800218220FCF7B0F87D
:1044800000218320FCF7ACF800218420FCF7A8F879
:1044900000218520FCF7A4F813219020FCF7A0F858
:1044A0004FF440719220FCF79BF805219320FCF714
:1044B00097F800219520FCF793F800219720FCF74E
:1044C0008FF800219820FCF78BF84FF480710120C1
:1044D000FCF786F84FF4E0610220FCF781F841F226
:1044E00038010320FCF77CF800210420FCF778F861
:1044F00000210C20FCF774F800210F20FCF770F865
:1045000000212020FCF76CF800212120FCF768F83E
:1045100021210720FCF764F8142003F083FD6121BA
:104520000720FCF75DF8142003F07CFD40F27311C6
:104530000720FCF755F8142003F074FD95E4FE48BD
:1045400080884BF2055188427ED100210846FCF755
:1045500047F800210846FCF743F800210846FCF71D
:104560003FF800210846FCF73BF80121A420FCF7A6
:1045700037F8142003F056FD4FF41C516020FCF76F
:104580002FF840F202210820FCF72AF84FF40571B9
:104590003020FCF725F843F215713120FCF720F8A4
:1045A00040F204613220FCF71BF840F6166133201C
:1045B000FCF716F842F211213420FCF711F84FF401
:1045C000A8513520FCF70CF848F207513620FCF7CB
:1045D00007F841F207413720FCF702F841F20341A6
:1045E0003820FBF7FDFF20213920FBF7F9FF1A21C6
:1045F0009020FBF7F5FF00211020FBF7F1FF0721CA
:104600001120FBF7EDFF00211220FBF7E9FF00214D
:104610001320FBF7E5FF142003F004FD4FF4E661DF
:104620001020FBF7DDFF40F237111120FBF7D8FF18
:10463000142003F0F7FC4FF4DC711220FBF7D0FFDD
:10464000142003F0EFFC00E083E04FF470611320CE
:10465000FBF7C6FF80212A20FBF7C2FF4821292053
:10466000FBF7BEFF142003F0DDFC4FF48071012046
:10467000FBF7B6FF4FF4E0610220FBF7B1FF41F218
:1046800038010320FBF7ACFF40F202210820FBF7C2
:10469000A7FF00210A20FBF7A3FF00210C20FBF756
:1046A0009FFF00210D20FBF79BFF30210E20FBF721
:1046B00097FF00215020FBF793FFEF215120FBF7DC
:1046C0008FFF00215220FBF78BFF40F23F11532058
:1046D000FBF786FF4FF41C516020FBF781FF01219F
:1046E0006120FBF77DFF00216A20FBF779FF112194
:1046F0009020FBF775FF4FF4C0619220FBF770FF2D
:1047000040F202419320FBF76BFF02219420FBF75C
:1047100067FF142003F086FC01210720FBF760FFF0
:10472000142003F07FFC61210720FBF759FF40F2C2
:1047300073110720FBF754FF00212020FBF750FFE7
:1047400000212120FBF74CFF22210020FBF748FF2E
:1047500011E3794880884CF2055188427ED10021CE
:104760000846FBF73DFF00210846FBF739FF142000
:1047700003F058FC00210846FBF732FF00210846F1
:10478000FBF72EFF00210846FBF72AFF0021084611
:10479000FBF726FF0121A420FBF722FF142003F0E2
:1047A00041FC4FF41C516020FBF71AFF40F6060154
:1047B0000820FBF715FF40F203713020FBF710FFD4
:1047C00001213120FBF70CFF04213220FBF708FF09
:1047D0004FF481713320FBF703FF4FF44071342015
:1047E000FBF7FEFE40F203113520FBF7F9FE1F2117
:1047F0003620FBF7F5FE40F203713720FBF7F0FEA1
:1048000001213820FBF7ECFE04213920FBF7E8FEFC
:1048100015219020FBF7E4FE4FF482611020FBF796
:10482000DFFE40F247211120FBF7DAFE4FF4DE7184
:104830001220FBF7D5FE4FF460611320FBF7D0FE8A
:10484000782003F0EFFB4FF480710120FBF7C8FEE6
:104850004FF400710220FBF7C3FE00E050E041F28C
:1048600030010320FBF7BCFE08210A20FBF7B8FE4D
:1048700000210C20FBF7B4FE20210E20FBF7B0FE38
:1048800000210F20FBF7ACFE00212020FBF7A8FE43
:1048900000212120FBF7A4FE3D212A20FBF7A0FEEA
:1048A000142003F0BFFB2D212920FBF799FE0021E6
:1048B0005020FBF795FE4DF2EF015120FBF790FEE3
:1048C00000215220FBF78CFE40F23F115320FBF7F2
:1048D00087FE00216120FBF783FE00216A20FBF7A1
:1048E0007FFE4FF440719220FBF77AFE0521932062
:1048F000FBF776FE4FF480710720FBF771FE3AE27A
:104900000D48808844F2315188427CD10121002039
:10491000FBF766FE0A2003F085FB41F228611020B8
:10492000FBF75EFE0E211220FBF75AFE40F63921FE
:104930001320FBF755FE01E0F40200200A2003F0EB
:1049400071FB40211120FBF74BFE50211520FBF796
:1049500047FE0A2003F066FB1E211220FBF740FEF3
:104960000A2003F05FFB4FF4B1511020FBF738FE33
:1049700042F639211320FBF733FE0A2003F052FBE5
:104980004FF480710120FBF72BFE4FF440710220A1
:10499000FBF726FE41F238010320FBF721FE40F22F
:1049A00002210820FBF71CFE08210A20FBF718FE55
:1049B00000213020FBF714FE40F202413120FBF7CA
:1049C0000FFE4FF483713220FBF70AFE40F20351D1
:1049D0003320FBF705FE4FF482713420FBF700FE15
:1049E00040F201313520FBF7FBFD40F20771362024
:1049F000FBF7F6FD40F205313720FBF7F1FD4FF4F0
:104A00000271382000E040E0FBF7EAFD40F60B7150
:104A10003920FBF7E5FD02214120FBF7E1FD4FF4D2
:104A20001C516020FBF7DCFD01216120FBF7D8FD64
:104A30004FF404719020FBF7D3FD4FF48571922061
:104A4000FBF7CEFD04219320FBF7CAFD4FF48071E4
:104A5000A020FBF7C5FD01210720FBF7C1FD2121A7
:104A60000720FBF7BDFD23210720FBF7B9FD33210C
:104A70000720FBF7B5FD40F233110720FBF7B0FD2F
:104A80000021A020FBF7ACFD75E1F748808844F2D7
:104A9000355188427ED130211520FBF7A1FD102130
:104AA0009A20FBF79DFD20211120FBF799FD43F291
:104AB00028411020FBF794FD02211220FBF790FD06
:104AC00041F238011320FBF78BFD282003F0AAFAEE
:104AD00012210846FBF784FD282003F0A3FA43F2D5
:104AE00020411020FBF77CFD43F238011320FBF737
:104AF00077FD462003F096FA00213020FBF770FD89
:104B000040F202413120FBF76BFD40F207313220C9
:104B1000FBF766FD4FF441713320FBF761FD042183
:104B20003420FBF75DFD40F201413520FBF758FDD5
:104B300040F207713620FBF753FD40F20531372074
:104B4000FBF74EFD4FF4C2613820FBF749FD4FF4EF
:104B5000C2613920FBF744FD4FF480710120FBF75F
:104B60003FFD4FF440710220FBF73AFD41F2300166
:104B70000320FBF735FD40F608010820FBF730FD68
:104B800008210A20FBF72CFD4FF41C516020FBF795
:104B900027FD00E031E001216120FBF721FD4FF40A
:104BA0009F719020FBF71CFD4FF480719220FBF762
:104BB00017FD4FF480719320FBF712FD4FF4405125
:104BC000A020FBF70DFD1021A320FBF709FD01211B
:104BD0000720FBF705FD21210720FBF701FD23211D
:104BE0000720FBF7FDFC33210720FBF7F9FC40F21F
:104BF00033110720FBF7F4FCBDE09B48808841F6A9
:104C000063118842F8D1E220FBF7F9FC1D20FBF785
:104C1000ECFC0220FBF7E9FC0420FBF7E6FC642037
:104C200003F0B8F9E020FBF7EAFC0120FBF7DDFC1C
:104C30000A2003F0F7F9E020FBF7E1FC0320FBF783
:104C4000D4FC0C2003F0EEF90120FBF7D8FC0A207D
:104C500003F0E8F9E620FBF7D2FC2F20FBF7C5FCB8
:104C6000FF20FBF7C2FCFF20FBF7BFFCB020FBF7E7
:104C7000C6FC2020FBF7B9FC0020FBF7B6FC0320A4
:104C8000FBF7B3FC40F21F30FBF7AFFC0120FBF752
:104C9000ACFC40F2DF10FBF7A8FC0020FBF7A5FC02
:104CA000B420FBF7ACFC0420FBF79FFC40F21F4054
:104CB000FBF79BFC0020FBF798FC2E20FBF795FCF4
:104CC0000020FBF792FC0020FBF78FFC0020FBF795
:104CD0008CFC0020FBF789FCB620FBF790FC02203F
:104CE000FBF783FC4FF40370FBF77FFC0020FBF71E
:104CF0007CFC1720FBF779FC1520FBF776FC0020E5
:104D0000FBF773FC0020FBF770FCF020FBF777FC4F
:104D10000320FBF76AFC2920FBF771FCD020FBF78E
:104D20006EFC0020FBF761FCBE20FBF768FC052051
:104D3000FBF75BFCFE20FBF758FC0120FBF755FC62
:104D40000020FBF752FC0020FBF74FFC0020FBF794
:104D50004CFCB820FBF753FC0320FBF746FC01207A
:104D6000FBF743FCBA20FBF74AFC0120FBF73DFCB4
:104D70006420FCF71FF90020FCF748F901203B49AB
:104D800008600020FCF733FB21B000BD2DE9FC4F8B
:104D900005460E4617469846DDF82C9000200190F7
:104DA0003148808846F60401884229D12E4880790E
:104DB000012825D1AB4635462B480088C01B401E34
:104DC00086B2474628480088A0EB0B00401E1FFA19
:104DD00080F80020244988712A2048812B2088816E
:104DE00043463A4631462846CDF80090FFF7CEFFBD
:104DF00001201D4988712B2048812A2088811CE0D0
:104E0000781B401C80B20190344614E021462846AD
:104E1000FBF760FDFBF741FD4FF0000A06E0144888
:104E2000A0F800900AF101001FFA80FA019882456B
:104E3000F5DB601C84B24445E8DDBDE8FC8F2DE95C
:104E4000F84F07460D4690469946DDF828B0A8EB86
:104E50000700401C1FFA80FAA9EB0500401C80B235
:104E6000009000241BE00000F402002080824042F9
:104E70000008006C281981B23846FBF72BFDFBF7C0
:104E80000CFD002607E004FB0A603BF81000F8491F
:104E90000880701C86B25645F5DB601C84B2009811
:104EA0008442E7DBBDE8F88F2DE9FF4F84B08146EF
:104EB0008A460020039002900698A0EB0905079807
:104EC000A0EB0A06CDF80490CDF800A0002D01DD7E
:104ED000012705E00DB9002702E04FF0FF376D42D2
:104EE000002E02DD4FF0010806E016B94FF0000871
:104EF00002E04FF0FF387642B54201DD2C4600E07B
:104F000034464FF0000B21E0009A91B2019A90B222
:104F1000FCF742F80398284403900298304402902A
:104F20000398A04205DD0398001B039001983844C4
:104F300001900298A04205DD0298001B02900098A3
:104F4000404400900BF101001FFA80FB601C834578
:104F5000DADD08B0BDE8F08FF0B504460D46164620
:104F60001F462B46324629462046FFF79DFF3B460B
:104F7000224629462046FFF797FF3B4632463946F0
:104F80002046FFF791FF3B46324629463046FFF761
:104F90008BFFF0BD2DE9F04306460F4690460024F6
:104FA00045460320A0EB48093CE07A1B91B2321938
:104FB00090B2FBF7F1FF3A1B91B2721990B2FBF776
:104FC000EBFF3A1991B2721990B2FBF7E5FF7A192B
:104FD00091B2321990B2FBF7DFFF7A1991B2321B0E
:104FE00090B2FBF7D9FF3A1991B2721B90B2FBF75E
:104FF000D3FF7A1B91B2321B90B2FBF7CDFF3A1B65
:1050000091B2721B90B2FBF7C7FF641CB9F1000F9D
:1050100003DAA000801D814404E0601B80000A3098
:1050200081446D1EAC42C0DDBDE8F0832DE9F84F30
:1050300080460E4617461C46B3462046E31704EB4F
:105040005373DB1021464FEAE47C04EB5C7C4FEAAF
:10505000EC0CA4EBCC0CBCF1000F02D04FF0010C17
:1050600001E04FF0000C6344224604EBD27C4FEA8F
:105070006C0C03FB0CF3DBB20093A7F12000C7B26A
:10508000002556E00C2C07D107EB4700794901EBCE
:10509000800010F8059013E0102C05D1764800EB45
:1050A000071010F805900BE0182C07D107EBC7008C
:1050B000724901EB800010F8059001E0BDE8F88F1F
:1050C0004FF0000A2FE009F0800030B16C480288F0
:1050D00031464046FBF79CFA07E00A9828B9694830
:1050E000028831464046FBF793FA4FEA49604FEA9F
:1050F0001069701C86B264484088B04200DCDDE76D
:10510000A6EB0B00A0420AD15E4608F101001FFA8F
:1051100080F85D480088404500DCCFE706E00AF1F2
:10512000010000F0FF0ABAF1080FCCDB00BF681CD9
:10513000C5B200988542A5DB00BFBFE710B50246A7
:10514000012000E050430B1EA1F10104E1B2F9D1AE
:1051500010BD2DE9FF4F81B0074691461E460E9DBA
:105160004FF0000A002439E0301B401EC1B20A2073
:10517000FFF7E4FFB9FBF0F00A21B0FBF1F201FB0D
:105180001208BAF1000F16D1701EA04213DDB8F15B
:10519000000F0ED10020AB4605EBDB71491001FB7F
:1051A0000471009088B22B4620220299FFF73EFF3F
:1051B00012E04FF0010A0020AB4605EBDB7149100D
:1051C00001FB0471009088B208F13001CAB22B468D
:1051D0000299FFF72BFF00BF601CC4B2B442C3DBCF
:1051E00005B0BDE8F08F2DE9FF4F82B0064692462C
:1051F0001F46DDE90F480020019000255CE0781B88
:10520000401EC1B20A20FFF799FFBAFBF0F00A2155
:10521000B0FBF1F201FB1209019840BB781EA842D5
:1052200036DDB9F1000F31D108F0800078B108F017
:105230000100A34604EBDB71491001FB05610090FE
:1052400088B2234630220399FFF7F0FE0EE008F003
:105250000100A34604EBDB71491001FB05610090DE
:1052600088B2234620220399FFF7E0FE22E00FE0F8
:105270000008006C6A0C0208DE100208CE16020854
:105280001400002016000020F402002001200190EC
:1052900008F00100A34604EBDB71491001FB056136
:1052A000009088B209F13001CAB223460399FFF792
:1052B000BDFE00BF681CC5B2BD42A0DB06B0BDE8A4
:1052C000F08F2DE9F84704460D4690469946DDE9F2
:1052D000096704F0FF0A08EB04001FFA80F809EBE5
:1052E00005001FFA80F916E0444502DB5446A81970
:1052F00085B24D4500DB14E0002000903A7833463B
:1053000029462046FFF792FE304606EBD07104EBAB
:1053100061018CB27F1C38787E2802DC3878202826
:10532000E2DA00BFBDE8F8871CB50121112003F0C7
:10533000D5FD7420009000208DF8040003208DF826
:10534000050001208DF807006946374803F044F84E
:105350000420009000208DF8040003208DF8050043
:1053600001208DF807006946304803F035F81CBD70
:1053700010B5044614B101202D4908702C4800785E
:10538000002835D01021284803F088F870B140215A
:10539000254803F083F848B10421234803F07EF840
:1053A00020B12021204803F079F808BB0A2002F040
:1053B00039FE00201E49087010211B4803F06EF8CA
:1053C00008B9012010BD4021174803F067F808B95B
:1053D0000220F7E70421144803F060F808B903201D
:1053E000F0E72021104803F059F8D8B90420E9E784
:1053F00010210D4803F052F8012813D140210A482A
:1054000003F04CF801280DD10421074803F046F8B9
:10541000012807D12021044803F040F8012801D1D8
:10542000034908700020CDE7001002400000024050
:105430001800002010B500240020D84908609020F2
:1054400002F098F9002002F095F9002002F092F99C
:10545000002002F08FF9FF2002F08CF944EA0024CA
:10546000FF2002F087F904430120CD49C1F8B802BA
:10547000204610BD1CB50121022003F02FFD0121A3
:10548000402003F02BFD4FF48040009001208DF868
:10549000040000208DF8060003208DF8050001208F
:1054A0008DF807006946BF4802F096FF8020009003
:1054B0006946BD4802F090FF8021BB4803F008F820
:1054C0000120B649086002F06EF9002002F0C8F928
:1054D000FFF7B0FFB54908801CBD10B500240020BF
:1054E000AE490860052002F045F9FF2002F042F9BC
:1054F00004460120AA49C1F8B802204610BD10B5E3
:1055000004460020A5490860012002F033F9204636
:1055100002F030F90120A249C1F8B80210BD10B55F
:1055200000209E490860062002F024F901209C49D1
:10553000C1F8B80210BD10B50020984908600420D9
:1055400002F018F901209649C1F8B80210BD2DE902
:10555000F04106460C46174600209049086003209B
:1055600002F008F9C4F3074002F004F9C4F307207D
:1055700002F000F9E0B202F0FDF8002505E0FF209E
:1055800002F0F8F87055681C85B2BD42F7DB0120C7
:1055900082490860BDE8F08110B500BFFFF79DFFAC
:1055A00000F001000028F9D110BD2DE9F0410646B8
:1055B0000C461746FFF7B3FF002078490860022029
:1055C00002F0D8F8C4F3074002F0D4F8C4F307207F
:1055D00002F0D0F8E0B202F0CDF8002504E0705DF2
:1055E00002F0C8F8681C85B2BD42F8DB01206B49A7
:1055F0000860FFF7D1FFBDE8F0812DE9F0410746D3
:105600000E461446F0B2C0F58075AC4200DC25466B
:1056100012E02A4631463846FFF7C7FFAC4200D1B8
:105620000BE02F442E44601B84B2B4F5807F02DD72
:105630004FF4807500E02546EBE700BFBDE8F08140
:1056400010B5044621465AA00BF0E8FC2403FFF7EE
:1056500066FFFFF7A1FF002050490860202002F0FC
:1056600089F8C4F3074002F085F8C4F3072002F07C
:1056700081F8E0B202F07EF801204949C1F8B80291
:10568000FFF78AFF10BD2DE9F05F81460F461646F1
:10569000DFF824B14FEA1738C7F30B0ACAF5805474
:1056A000A64200DC344644E04FEA08314FF4805211
:1056B0005846FFF74CFF002508E00AEB05001BF8F1
:1056C0000000FF2800D003E0681C85B2A542F4DB8F
:1056D00000BFA54216DA4046FFF7B2FF002507E0FB
:1056E00019F8050005EB0A010BF80100681C85B2EA
:1056F000A542F5DB4FEA08314FF480525846FFF7D8
:105700007CFF04E0224639464846FFF776FFA64272
:1057100000D10FE008F101084FF0000AA14427442E
:10572000301B86B2B6F5805F02DD4FF4805400E096
:105730003446B9E700BFBDE8F09F10B5FFF7EFFEB4
:10574000FFF72AFF002015490860C72002F012F871
:1057500001201349C1F8B802FFF71EFF10BD10B5B4
:1057600000200E490860B92002F004F801200C491D
:10577000C1F8B802032002F00DFC10BD10B50020E6
:1057800006490860AB2001F0F5FF01200449C1F88B
:10579000B802032002F0FEFB10BD0000B8824042B8
:1057A0000080404200040240001802401A0000201D
:1057B00066653A25780D0A00020300200020FE49A4
:1057C0000860091D0860091D0860091D0860FA4984
:1057D00024310860091D0860091D0860F748F64972
:1057E000383108600020091D08607047014600201C
:1057F000012900D011B9F24B197000E02620704742
:105800000146ED4A121D106820F0FF0008431060A9
:10581000704770B5044606E0E7483430056805F087
:10582000450000B100E0F7E700BF042005F02EF8C6
:1058300020B1042005F035F8032070BD012005F0EB
:1058400025F820B1012005F02CF80120F5E7DA4811
:1058500010300068A04201D01020EEE740F2FF5067
:1058600005F01FF8D4481430006808210840C0B281
:10587000E3E72DE9FC4107460D4600260024002001
:10588000009001900820CF49086010204860402017
:1058900088600020C8604FF480600861084604F00A
:1058A00062FF1020FFF7B5FF044614B12046BDE8A3
:1058B000FC81C54800880004C24908603720486060
:1058C000402088600020C8604FF48060086108466E
:1058D00004F049FF3720FFF79CFF04460CB1204637
:1058E000E5E74FF0FF30B9490860082048603020F4
:1058F00088600220C86000200861012048610846D5
:1059000004F05DFF0020AF4908603320486040206C
:1059100088600020C8604FF480600861084604F089
:1059200022FF3320FFF775FF04460CB12046BEE787
:105930000DE04FF4001004F0A9FF40B19E48803004
:1059400000684DF82600761C022E00D307E09A4826
:105950003430006840F22A6108400028E9D000BFD6
:10596000082004F093FF20B1082004F09AFF0420DF
:105970009DE7022004F08AFF20B1022004F091FF8D
:10598000022094E7202004F081FF20B1202004F0C1
:1059900088FF06208BE74FF4007004F077FF28B1F2
:1059A0004FF4007004F07DFF072080E740F2FF50C5
:1059B00004F077FF00980006009901F47F4140EA67
:1059C0000120009901F47F0140EA1120009940EA8A
:1059D0001160686001980006019901F47F4140EA76
:1059E0000120019901F47F0140EA1120019940EA68
:1059F0001160286020465AE77CB505460024002047
:105A00000090019000260DB1022600E000266A48B1
:105A10001430006800F0007008B10E207CBD6A49A7
:105A2000098888B26946FFF724FF04460CB1204676
:105A3000F4E7019800F4802060B363480088000414
:105A40006049086037204860402088600020C860B6
:105A50004FF480600861084604F085FE3720FFF7A8
:105A6000D8FE04460CB12046D8E75648066006200A
:105A700054494860402088600020C8604FF480602E
:105A80000861084604F06FFE0620FFF7C2FE0446D8
:105A90002046C3E72520C1E770B5044600254C48E1
:105AA0000078032802D12725284670BD4848007891
:105AB00038B147480078012803D0454800780228CB
:105AC00019D1B4F5805F02D127252846EDE7E0B271
:105AD000FFF792FF054675B93748001D006820F4AE
